{
  "contractName": "ApplicationManager",
  "abi": [
    {
      "constant": true,
      "inputs": [
        {
          "name": "",
          "type": "uint256"
        }
      ],
      "name": "applicationIdsByDeveloperId",
      "outputs": [
        {
          "name": "",
          "type": "string"
        }
      ],
      "payable": false,
      "stateMutability": "view",
      "type": "function"
    },
    {
      "constant": true,
      "inputs": [],
      "name": "applicationsCount",
      "outputs": [
        {
          "name": "",
          "type": "uint256"
        }
      ],
      "payable": false,
      "stateMutability": "view",
      "type": "function"
    },
    {
      "constant": true,
      "inputs": [
        {
          "name": "",
          "type": "uint256"
        }
      ],
      "name": "IPFSHashByApplicationId",
      "outputs": [
        {
          "name": "",
          "type": "string"
        }
      ],
      "payable": false,
      "stateMutability": "view",
      "type": "function"
    },
    {
      "constant": true,
      "inputs": [
        {
          "name": "",
          "type": "uint256"
        }
      ],
      "name": "developerIdByApplicationId",
      "outputs": [
        {
          "name": "",
          "type": "uint256"
        }
      ],
      "payable": false,
      "stateMutability": "view",
      "type": "function"
    },
    {
      "constant": true,
      "inputs": [
        {
          "name": "",
          "type": "uint256"
        }
      ],
      "name": "applications",
      "outputs": [
        {
          "name": "id",
          "type": "uint256"
        },
        {
          "name": "name",
          "type": "string"
        },
        {
          "name": "description",
          "type": "string"
        },
        {
          "name": "ipfsHash",
          "type": "string"
        },
        {
          "name": "developerId",
          "type": "uint256"
        },
        {
          "name": "likeCounts",
          "type": "uint256"
        }
      ],
      "payable": false,
      "stateMutability": "view",
      "type": "function"
    },
    {
      "inputs": [],
      "payable": false,
      "stateMutability": "nonpayable",
      "type": "constructor"
    },
    {
      "constant": true,
      "inputs": [],
      "name": "getApplicationsCount",
      "outputs": [
        {
          "name": "",
          "type": "uint256"
        }
      ],
      "payable": false,
      "stateMutability": "view",
      "type": "function"
    },
    {
      "constant": false,
      "inputs": [
        {
          "name": "_name",
          "type": "string"
        },
        {
          "name": "_description",
          "type": "string"
        },
        {
          "name": "_ipfsHash",
          "type": "string"
        },
        {
          "name": "_developerId",
          "type": "uint256"
        }
      ],
      "name": "addApplication",
      "outputs": [],
      "payable": false,
      "stateMutability": "nonpayable",
      "type": "function"
    }
  ],
  "bytecode": "0x608060405234801561001057600080fd5b506111b3806100206000396000f300608060405260043610610083576000357c0100000000000000000000000000000000000000000000000000000000900463ffffffff1680631e5aef0814610088578063470ed31a1461018757806365bcc7c41461022d5780636b2996a0146102585780638c75439014610283578063cd3a868714610329578063dfefadff1461036a575b600080fd5b34801561009457600080fd5b50610185600480360381019080803590602001908201803590602001908080601f0160208091040260200160405190810160405280939291908181526020018383808284378201915050505050509192919290803590602001908201803590602001908080601f0160208091040260200160405190810160405280939291908181526020018383808284378201915050505050509192919290803590602001908201803590602001908080601f0160208091040260200160405190810160405280939291908181526020018383808284378201915050505050509192919290803590602001909291905050506104fd565b005b34801561019357600080fd5b506101b260048036038101908080359060200190929190505050610732565b6040518080602001828103825283818151815260200191508051906020019080838360005b838110156101f25780820151818401526020810190506101d7565b50505050905090810190601f16801561021f5780820380516001836020036101000a031916815260200191505b509250505060405180910390f35b34801561023957600080fd5b506102426107e2565b6040518082815260200191505060405180910390f35b34801561026457600080fd5b5061026d6107ec565b6040518082815260200191505060405180910390f35b34801561028f57600080fd5b506102ae600480360381019080803590602001909291905050506107f2565b6040518080602001828103825283818151815260200191508051906020019080838360005b838110156102ee5780820151818401526020810190506102d3565b50505050905090810190601f16801561031b5780820380516001836020036101000a031916815260200191505b509250505060405180910390f35b34801561033557600080fd5b50610354600480360381019080803590602001909291905050506108a2565b6040518082815260200191505060405180910390f35b34801561037657600080fd5b50610395600480360381019080803590602001909291905050506108ba565b60405180878152602001806020018060200180602001868152602001858152602001848103845289818151815260200191508051906020019080838360005b838110156103ef5780820151818401526020810190506103d4565b50505050905090810190601f16801561041c5780820380516001836020036101000a031916815260200191505b50848103835288818151815260200191508051906020019080838360005b8381101561045557808201518184015260208101905061043a565b50505050905090810190601f1680156104825780820380516001836020036101000a031916815260200191505b50848103825287818151815260200191508051906020019080838360005b838110156104bb5780820151818401526020810190506104a0565b50505050905090810190601f1680156104e85780820380516001836020036101000a031916815260200191505b50995050505050505050505060405180910390f35b60046000815480929190600101919050555060c06040519081016040528060045481526020018581526020018481526020018381526020018281526020016000815250600080600454815260200190815260200160002060008201518160000155602082015181600101908051906020019061057a929190611062565b506040820151816002019080519060200190610597929190611062565b5060608201518160030190805190602001906105b4929190611062565b506080820151816004015560a08201518160050155905050806001600060045481526020019081526020016000208190555081600360006004548152602001908152602001600020908051906020019061060f9291906110e2565b50610705600260008381526020019081526020016000208054600181600116156101000203166002900480601f0160208091040260200160405190810160405280929190818152602001828054600181600116156101000203166002900480156106ba5780601f1061068f576101008083540402835291602001916106ba565b820191906000526020600020905b81548152906001019060200180831161069d57829003601f168201915b50505050506040805190810160405280600181526020017f3a00000000000000000000000000000000000000000000000000000000000000815250610700600454610abe565b610c15565b60026000838152602001908152602001600020908051906020019061072b9291906110e2565b5050505050565b60026020528060005260406000206000915090508054600181600116156101000203166002900480601f0160208091040260200160405190810160405280929190818152602001828054600181600116156101000203166002900480156107da5780601f106107af576101008083540402835291602001916107da565b820191906000526020600020905b8154815290600101906020018083116107bd57829003601f168201915b505050505081565b6000600454905090565b60045481565b60036020528060005260406000206000915090508054600181600116156101000203166002900480601f01602080910402602001604051908101604052809291908181526020018280546001816001161561010002031660029004801561089a5780601f1061086f5761010080835404028352916020019161089a565b820191906000526020600020905b81548152906001019060200180831161087d57829003601f168201915b505050505081565b60016020528060005260406000206000915090505481565b6000602052806000526040600020600091509050806000015490806001018054600181600116156101000203166002900480601f01602080910402602001604051908101604052809291908181526020018280546001816001161561010002031660029004801561096c5780601f106109415761010080835404028352916020019161096c565b820191906000526020600020905b81548152906001019060200180831161094f57829003601f168201915b505050505090806002018054600181600116156101000203166002900480601f016020809104026020016040519081016040528092919081815260200182805460018160011615610100020316600290048015610a0a5780601f106109df57610100808354040283529160200191610a0a565b820191906000526020600020905b8154815290600101906020018083116109ed57829003601f168201915b505050505090806003018054600181600116156101000203166002900480601f016020809104026020016040519081016040528092919081815260200182805460018160011615610100020316600290048015610aa85780601f10610a7d57610100808354040283529160200191610aa8565b820191906000526020600020905b815481529060010190602001808311610a8b57829003601f168201915b5050505050908060040154908060050154905086565b60606000806060600080861415610b0c576040805190810160405280600181526020017f30000000000000000000000000000000000000000000000000000000000000008152509450610c0c565b8593505b600084141515610b36578280600101935050600a84811515610b2e57fe5b049350610b10565b826040519080825280601f01601f191660200182016040528015610b695781602001602082028038833980820191505090505b5091506001830390505b600086141515610c0857600a86811515610b8957fe5b066030017f010000000000000000000000000000000000000000000000000000000000000002828280600190039350815181101515610bc457fe5b9060200101907effffffffffffffffffffffffffffffffffffffffffffffffffffffffffffff1916908160001a905350600a86811515610c0057fe5b049550610b73565b8194505b50505050919050565b6060610c4484848460206040519081016040528060008152506020604051908101604052806000815250610c4d565b90509392505050565b6060806060806060806060806000808e98508d97508c96508b95508a94508451865188518a518c51010101016040519080825280601f01601f191660200182016040528015610cab5781602001602082028038833980820191505090505b50935083925060009150600090505b8851811015610d6d578881815181101515610cd157fe5b9060200101517f010000000000000000000000000000000000000000000000000000000000000090047f0100000000000000000000000000000000000000000000000000000000000000028383806001019450815181101515610d3057fe5b9060200101907effffffffffffffffffffffffffffffffffffffffffffffffffffffffffffff1916908160001a9053508080600101915050610cba565b600090505b8751811015610e25578781815181101515610d8957fe5b9060200101517f010000000000000000000000000000000000000000000000000000000000000090047f0100000000000000000000000000000000000000000000000000000000000000028383806001019450815181101515610de857fe5b9060200101907effffffffffffffffffffffffffffffffffffffffffffffffffffffffffffff1916908160001a9053508080600101915050610d72565b600090505b8651811015610edd578681815181101515610e4157fe5b9060200101517f010000000000000000000000000000000000000000000000000000000000000090047f0100000000000000000000000000000000000000000000000000000000000000028383806001019450815181101515610ea057fe5b9060200101907effffffffffffffffffffffffffffffffffffffffffffffffffffffffffffff1916908160001a9053508080600101915050610e2a565b600090505b8551811015610f95578581815181101515610ef957fe5b9060200101517f010000000000000000000000000000000000000000000000000000000000000090047f0100000000000000000000000000000000000000000000000000000000000000028383806001019450815181101515610f5857fe5b9060200101907effffffffffffffffffffffffffffffffffffffffffffffffffffffffffffff1916908160001a9053508080600101915050610ee2565b600090505b845181101561104d578481815181101515610fb157fe5b9060200101517f010000000000000000000000000000000000000000000000000000000000000090047f010000000000000000000000000000000000000000000000000000000000000002838380600101945081518110151561101057fe5b9060200101907effffffffffffffffffffffffffffffffffffffffffffffffffffffffffffff1916908160001a9053508080600101915050610f9a565b82995050505050505050505095945050505050565b828054600181600116156101000203166002900490600052602060002090601f016020900481019282601f106110a357805160ff19168380011785556110d1565b828001600101855582156110d1579182015b828111156110d05782518255916020019190600101906110b5565b5b5090506110de9190611162565b5090565b828054600181600116156101000203166002900490600052602060002090601f016020900481019282601f1061112357805160ff1916838001178555611151565b82800160010185558215611151579182015b82811115611150578251825591602001919060010190611135565b5b50905061115e9190611162565b5090565b61118491905b80821115611180576000816000905550600101611168565b5090565b905600a165627a7a72305820ba09bc9e43f3450acb8d29098dacfcf874d3c9f69e13523e1ef1b76d56d2308e0029",
  "source": "pragma solidity 0.4.24;\n\ncontract ApplicationManager {\n\n\t// Model applicatoins\n\tstruct Application {\n\t\tuint id;\n\t\tstring name;\n\t\tstring description;\n\t\tstring ipfsHash;\n\t\tuint developerId;\n\t\tuint likeCounts;\n\t}\n\n\t// Store & fetch applicatoins\n\tmapping (uint => Application) public applications;\n\n\t// Get developer id of each applicatoin by application id\n\tmapping (uint => uint) public developerIdByApplicationId; \n\n\t// Get all applicatoins which belong to a specific developerId\n\tmapping (uint => string) public applicationIdsByDeveloperId; \n\n\t// Get IPFS hash of each application by application id\n\tmapping (uint => string) public IPFSHashByApplicationId; \n\n\t// Store applications count\n\tuint public applicationsCount;\n\t \n\tfunction getApplicationsCount() public view returns (uint) {\n    \treturn applicationsCount;\n  \t}\n\n\t// Constructor\n\tfunction ApplicationManager() public {\n\t}\n\n\t// Add application\n\tfunction addApplication(string _name, string _description, string _ipfsHash, uint _developerId) public {\n\t\tapplicationsCount ++;\n\t\tapplications[applicationsCount] = Application(applicationsCount, _name, _description, _ipfsHash, _developerId, 0);\n\t\tdeveloperIdByApplicationId[applicationsCount] = _developerId;\n\t\tIPFSHashByApplicationId[applicationsCount] = _ipfsHash;\n\t\tapplicationIdsByDeveloperId[_developerId] = strConcat(applicationIdsByDeveloperId[_developerId], \":\", uint2str(applicationsCount));\n\t}\n\n\tfunction strConcat(string _a, string _b, string _c, string _d, string _e) internal returns (string){\n\t    bytes memory _ba = bytes(_a);\n\t    bytes memory _bb = bytes(_b);\n\t    bytes memory _bc = bytes(_c);\n\t    bytes memory _bd = bytes(_d);\n\t    bytes memory _be = bytes(_e);\n\t    string memory abcde = new string(_ba.length + _bb.length + _bc.length + _bd.length + _be.length);\n\t    bytes memory babcde = bytes(abcde);\n\t    uint k = 0;\n\t    for (uint i = 0; i < _ba.length; i++) babcde[k++] = _ba[i];\n\t    for (i = 0; i < _bb.length; i++) babcde[k++] = _bb[i];\n\t    for (i = 0; i < _bc.length; i++) babcde[k++] = _bc[i];\n\t    for (i = 0; i < _bd.length; i++) babcde[k++] = _bd[i];\n\t    for (i = 0; i < _be.length; i++) babcde[k++] = _be[i];\n\t    return string(babcde);\n\t}\n\n\tfunction strConcat(string _a, string _b, string _c, string _d) internal returns (string) {\n\t    return strConcat(_a, _b, _c, _d, \"\");\n\t}\n\n\tfunction strConcat(string _a, string _b, string _c) internal returns (string) {\n\t    return strConcat(_a, _b, _c, \"\", \"\");\n\t}\n\n\tfunction strConcat(string _a, string _b) internal returns (string) {\n\t    return strConcat(_a, _b, \"\", \"\", \"\");\n\t}\n\n\tfunction uint2str(uint i) internal pure returns (string){\n\t    if (i == 0) return \"0\";\n\t    uint j = i;\n\t    uint length;\n\t    while (j != 0){\n\t        length++;\n\t        j /= 10;\n\t    }\n\t    bytes memory bstr = new bytes(length);\n\t    uint k = length - 1;\n\t    while (i != 0){\n\t        bstr[k--] = byte(48 + i % 10);\n\t        i /= 10;\n\t    }\n\t    return string(bstr);\n\t}\n}",
  "sourcePath": "/Users/shirin/Desktop/Thesis/Blockchain/Projects/Software Evolution/contracts/ApplicationManager.sol",
  "compiler": {
    "name": "solc",
    "version": "0.4.24+commit.e67f0147.Emscripten.clang"
  },
  "schemaVersion": "2.0.1",
  "updatedAt": "2018-09-21T21:23:06.469Z"
}