{
  "contractName": "MemberManager",
  "abi": [
    {
      "constant": true,
      "inputs": [
        {
          "name": "",
          "type": "uint256"
        }
      ],
      "name": "users",
      "outputs": [
        {
          "name": "id",
          "type": "uint256"
        },
        {
          "name": "username",
          "type": "string"
        },
        {
          "name": "password",
          "type": "string"
        }
      ],
      "payable": false,
      "stateMutability": "view",
      "type": "function"
    },
    {
      "constant": true,
      "inputs": [],
      "name": "usersCount",
      "outputs": [
        {
          "name": "",
          "type": "uint256"
        }
      ],
      "payable": false,
      "stateMutability": "view",
      "type": "function"
    },
    {
      "constant": true,
      "inputs": [],
      "name": "developersCount",
      "outputs": [
        {
          "name": "",
          "type": "uint256"
        }
      ],
      "payable": false,
      "stateMutability": "view",
      "type": "function"
    },
    {
      "constant": true,
      "inputs": [
        {
          "name": "",
          "type": "bytes32"
        }
      ],
      "name": "developerIds",
      "outputs": [
        {
          "name": "",
          "type": "uint256"
        }
      ],
      "payable": false,
      "stateMutability": "view",
      "type": "function"
    },
    {
      "constant": true,
      "inputs": [
        {
          "name": "",
          "type": "bytes32"
        }
      ],
      "name": "userIds",
      "outputs": [
        {
          "name": "",
          "type": "uint256"
        }
      ],
      "payable": false,
      "stateMutability": "view",
      "type": "function"
    },
    {
      "constant": true,
      "inputs": [
        {
          "name": "",
          "type": "uint256"
        }
      ],
      "name": "developers",
      "outputs": [
        {
          "name": "id",
          "type": "uint256"
        },
        {
          "name": "username",
          "type": "string"
        },
        {
          "name": "password",
          "type": "string"
        }
      ],
      "payable": false,
      "stateMutability": "view",
      "type": "function"
    },
    {
      "inputs": [],
      "payable": false,
      "stateMutability": "nonpayable",
      "type": "constructor"
    },
    {
      "constant": true,
      "inputs": [],
      "name": "getUsersCount",
      "outputs": [
        {
          "name": "",
          "type": "uint256"
        }
      ],
      "payable": false,
      "stateMutability": "view",
      "type": "function"
    },
    {
      "constant": true,
      "inputs": [],
      "name": "getDevelopersCount",
      "outputs": [
        {
          "name": "",
          "type": "uint256"
        }
      ],
      "payable": false,
      "stateMutability": "view",
      "type": "function"
    },
    {
      "constant": false,
      "inputs": [
        {
          "name": "_username",
          "type": "string"
        },
        {
          "name": "_password",
          "type": "string"
        }
      ],
      "name": "addDeveloper",
      "outputs": [],
      "payable": false,
      "stateMutability": "nonpayable",
      "type": "function"
    },
    {
      "constant": false,
      "inputs": [
        {
          "name": "_username",
          "type": "string"
        },
        {
          "name": "_password",
          "type": "string"
        },
        {
          "name": "isDeveloper",
          "type": "bool"
        }
      ],
      "name": "signUp",
      "outputs": [],
      "payable": false,
      "stateMutability": "nonpayable",
      "type": "function"
    },
    {
      "constant": true,
      "inputs": [
        {
          "name": "_username",
          "type": "string"
        }
      ],
      "name": "getDeveloperIdByUsername",
      "outputs": [
        {
          "name": "",
          "type": "uint256"
        }
      ],
      "payable": false,
      "stateMutability": "view",
      "type": "function"
    },
    {
      "constant": true,
      "inputs": [
        {
          "name": "_username",
          "type": "string"
        }
      ],
      "name": "getUserIdByUsername",
      "outputs": [
        {
          "name": "",
          "type": "uint256"
        }
      ],
      "payable": false,
      "stateMutability": "view",
      "type": "function"
    },
    {
      "constant": false,
      "inputs": [
        {
          "name": "source",
          "type": "string"
        }
      ],
      "name": "stringToBytes32",
      "outputs": [
        {
          "name": "result",
          "type": "bytes32"
        }
      ],
      "payable": false,
      "stateMutability": "nonpayable",
      "type": "function"
    }
  ],
  "bytecode": "0x60806040523480156200001157600080fd5b50620000976040805190810160405280600581526020017f75736572310000000000000000000000000000000000000000000000000000008152506040805190810160405280600381526020017f31323300000000000000000000000000000000000000000000000000000000008152506200022c640100000000026401000000009004565b6200011c6040805190810160405280600581526020017f75736572320000000000000000000000000000000000000000000000000000008152506040805190810160405280600381526020017f31323300000000000000000000000000000000000000000000000000000000008152506200022c640100000000026401000000009004565b620001a16040805190810160405280600a81526020017f646576656c6f70657231000000000000000000000000000000000000000000008152506040805190810160405280600381526020017f3132330000000000000000000000000000000000000000000000000000000000815250620002fb640100000000026401000000009004565b620002266040805190810160405280600a81526020017f646576656c6f70657232000000000000000000000000000000000000000000008152506040805190810160405280600381526020017f3132330000000000000000000000000000000000000000000000000000000000815250620002fb640100000000026401000000009004565b620004a5565b60056000815480929190600101919050555060606040519081016040528060055481526020018381526020018281525060036000600554815260200190815260200160002060008201518160000155602082015181600101908051906020019062000299929190620003f6565b506040820151816002019080519060200190620002b8929190620003f6565b5090505060055460016000620002dd85620003c9640100000000026401000000009004565b60001916600019168152602001908152602001600020819055505050565b600460008154809291906001019190505550606060405190810160405280600454815260200183815260200182815250600080600454815260200190815260200160002060008201518160000155602082015181600101908051906020019062000367929190620003f6565b50604082015181600201908051906020019062000386929190620003f6565b5090505060045460026000620003ab85620003c9640100000000026401000000009004565b60001916600019168152602001908152602001600020819055505050565b60006060829050600081511415620003e85760006001029150620003f0565b602083015191505b50919050565b828054600181600116156101000203166002900490600052602060002090601f016020900481019282601f106200043957805160ff19168380011785556200046a565b828001600101855582156200046a579182015b82811115620004695782518255916020019190600101906200044c565b5b5090506200047991906200047d565b5090565b620004a291905b808211156200049e57600081600090555060010162000484565b5090565b90565b610d0d80620004b56000396000f3006080604052600436106100c5576000357c0100000000000000000000000000000000000000000000000000000000900463ffffffff168063365b98b2146100ca57806343757e58146101e35780636ba13a821461020e5780639e02b7bc14610239578063a4a1e263146102e8578063b4897e1714610313578063c5098f3f1461033e578063cfb51928146103f9578063d6134d761461047e578063d83c249d146104c3578063e8e9a0dd14610540578063eff25cd614610585578063f0941d051461069e575b600080fd5b3480156100d657600080fd5b506100f56004803603810190808035906020019092919050505061071b565b604051808481526020018060200180602001838103835285818151815260200191508051906020019080838360005b8381101561013f578082015181840152602081019050610124565b50505050905090810190601f16801561016c5780820380516001836020036101000a031916815260200191505b50838103825284818151815260200191508051906020019080838360005b838110156101a557808201518184015260208101905061018a565b50505050905090810190601f1680156101d25780820380516001836020036101000a031916815260200191505b509550505050505060405180910390f35b3480156101ef57600080fd5b506101f8610875565b6040518082815260200191505060405180910390f35b34801561021a57600080fd5b5061022361087f565b6040518082815260200191505060405180910390f35b34801561024557600080fd5b506102e6600480360381019080803590602001908201803590602001908080601f0160208091040260200160405190810160405280939291908181526020018383808284378201915050505050509192919290803590602001908201803590602001908080601f0160208091040260200160405190810160405280939291908181526020018383808284378201915050505050509192919290505050610885565b005b3480156102f457600080fd5b506102fd61093e565b6040518082815260200191505060405180910390f35b34801561031f57600080fd5b50610328610948565b6040518082815260200191505060405180910390f35b34801561034a57600080fd5b506103f7600480360381019080803590602001908201803590602001908080601f0160208091040260200160405190810160405280939291908181526020018383808284378201915050505050509192919290803590602001908201803590602001908080601f016020809104026020016040519081016040528093929190818152602001838380828437820191505050505050919291929080351515906020019092919050505061094e565b005b34801561040557600080fd5b50610460600480360381019080803590602001908201803590602001908080601f0160208091040260200160405190810160405280939291908181526020018383808284378201915050505050509192919290505050610973565b60405180826000191660001916815260200191505060405180910390f35b34801561048a57600080fd5b506104ad600480360381019080803560001916906020019092919050505061099e565b6040518082815260200191505060405180910390f35b3480156104cf57600080fd5b5061052a600480360381019080803590602001908201803590602001908080601f01602080910402602001604051908101604052809392919081815260200183838082843782019150505050505091929192905050506109b6565b6040518082815260200191505060405180910390f35b34801561054c57600080fd5b5061056f60048036038101908080356000191690602001909291905050506109e3565b6040518082815260200191505060405180910390f35b34801561059157600080fd5b506105b0600480360381019080803590602001909291905050506109fb565b604051808481526020018060200180602001838103835285818151815260200191508051906020019080838360005b838110156105fa5780820151818401526020810190506105df565b50505050905090810190601f1680156106275780820380516001836020036101000a031916815260200191505b50838103825284818151815260200191508051906020019080838360005b83811015610660578082015181840152602081019050610645565b50505050905090810190601f16801561068d5780820380516001836020036101000a031916815260200191505b509550505050505060405180910390f35b3480156106aa57600080fd5b50610705600480360381019080803590602001908201803590602001908080601f0160208091040260200160405190810160405280939291908181526020018383808284378201915050505050509192919290505050610b55565b6040518082815260200191505060405180910390f35b6003602052806000526040600020600091509050806000015490806001018054600181600116156101000203166002900480601f0160208091040260200160405190810160405280929190818152602001828054600181600116156101000203166002900480156107cd5780601f106107a2576101008083540402835291602001916107cd565b820191906000526020600020905b8154815290600101906020018083116107b057829003601f168201915b505050505090806002018054600181600116156101000203166002900480601f01602080910402602001604051908101604052809291908181526020018280546001816001161561010002031660029004801561086b5780601f106108405761010080835404028352916020019161086b565b820191906000526020600020905b81548152906001019060200180831161084e57829003601f168201915b5050505050905083565b6000600454905090565b60055481565b60046000815480929190600101919050555060606040519081016040528060045481526020018381526020018281525060008060045481526020019081526020016000206000820151816000015560208201518160010190805190602001906108ef929190610c3c565b50604082015181600201908051906020019061090c929190610c3c565b509050506004546002600061092085610973565b60001916600019168152602001908152602001600020819055505050565b6000600554905090565b60045481565b80156109635761095e8383610885565b61096e565b61096d8383610b82565b5b505050565b600060608290506000815114156109905760006001029150610998565b602083015191505b50919050565b60026020528060005260406000206000915090505481565b6000600260006109c584610973565b60001916600019168152602001908152602001600020549050919050565b60016020528060005260406000206000915090505481565b6000602052806000526040600020600091509050806000015490806001018054600181600116156101000203166002900480601f016020809104026020016040519081016040528092919081815260200182805460018160011615610100020316600290048015610aad5780601f10610a8257610100808354040283529160200191610aad565b820191906000526020600020905b815481529060010190602001808311610a9057829003601f168201915b505050505090806002018054600181600116156101000203166002900480601f016020809104026020016040519081016040528092919081815260200182805460018160011615610100020316600290048015610b4b5780601f10610b2057610100808354040283529160200191610b4b565b820191906000526020600020905b815481529060010190602001808311610b2e57829003601f168201915b5050505050905083565b600060016000610b6484610973565b60001916600019168152602001908152602001600020549050919050565b600560008154809291906001019190505550606060405190810160405280600554815260200183815260200182815250600360006005548152602001908152602001600020600082015181600001556020820151816001019080519060200190610bed929190610c3c565b506040820151816002019080519060200190610c0a929190610c3c565b5090505060055460016000610c1e85610973565b60001916600019168152602001908152602001600020819055505050565b828054600181600116156101000203166002900490600052602060002090601f016020900481019282601f10610c7d57805160ff1916838001178555610cab565b82800160010185558215610cab579182015b82811115610caa578251825591602001919060010190610c8f565b5b509050610cb89190610cbc565b5090565b610cde91905b80821115610cda576000816000905550600101610cc2565b5090565b905600a165627a7a723058207b4b168b811597a2eb47ad791c31cb1a846367118678cc936f1adc9a6a051c370029",
  "source": "pragma solidity 0.4.24;\n\ncontract MemberManager {\n\t// Model developers\n\tstruct Developer {\n\t\tuint id;\n\t\tstring username;\n\t\tstring password;\n\t}\n\n\t// Model users\n\tstruct User {\n\t\tuint id;\n\t\tstring username;\n\t\tstring password;\n\t}\n\n\t// Model admin\n\tstruct Admin {\n\t\tuint id;\n\t\tstring username;\n\t\tstring password;\n\t}\n\n\t// Store & fetch developers\n\tmapping (uint => Developer) public developers;\n\n\t// Get user id via username\n\tmapping (bytes32 => uint) public userIds; \n\n\t// Get developer id via username\n\tmapping (bytes32 => uint) public developerIds; \n\n\t// Store & fetch users\n\tmapping (uint => User) public users; \n\n\t// Store developers count\n\tuint public developersCount;\n\n\t// Store users count\n\tuint public usersCount;\n\t \n\tfunction getUsersCount() public view returns (uint) {\n    \treturn usersCount;\n  \t}\n\n  \tfunction getDevelopersCount() public view returns (uint) {\n    \treturn developersCount;\n  \t}\n\n\t// Constructor\n\tfunction MemberManager() public {\n\t\taddUser('user1', '123');\n\t\taddUser('user2', '123');\n\t\taddDeveloper('developer1', '123');\n\t\taddDeveloper('developer2', '123');\n\t}\n\n\t// Add user\n\tfunction addUser(string _username, string _password) private {\n\t\tusersCount ++;\n\t\tusers[usersCount] = User(usersCount, _username, _password);\n\t\tuserIds[stringToBytes32(_username)] = usersCount;\n\t}\n\n\t// Add developer\n\tfunction addDeveloper(string _username, string _password) public {\n\t\tdevelopersCount ++;\n\t\tdevelopers[developersCount] = Developer(developersCount, _username, _password);\n\t\tdeveloperIds[stringToBytes32(_username)] = developersCount;\n\t}\n\n\t// Sign up developers\n\tfunction signUp(string _username, string _password, bool isDeveloper) public {\n\t\tif (isDeveloper) {\n\t\t\taddDeveloper(_username, _password);\n\t\t} else {\n\t\t\taddUser(_username, _password);\n\t\t}\n\t}\n\n\tfunction getDeveloperIdByUsername(string _username) public view returns (uint) {\n\t\treturn developerIds[stringToBytes32(_username)];\n\t}\n\n\tfunction getUserIdByUsername(string _username) public view returns (uint) {\n\t\treturn userIds[stringToBytes32(_username)];\n\t}\n\n\tfunction stringToBytes32(string memory source) returns (bytes32 result) {\n\t    bytes memory tempEmptyStringTest = bytes(source);\n\t    if (tempEmptyStringTest.length == 0) {\n\t        return 0x0;\n\t    }\n\n\t    assembly {\n\t        result := mload(add(source, 32))\n\t    }\n\t}\n}",
  "sourcePath": "/Users/shirin/Desktop/Thesis/Blockchain/Projects/Software Evolution/contracts/MemberManager.sol",
  "compiler": {
    "name": "solc",
    "version": "0.4.24+commit.e67f0147.Emscripten.clang"
  },
  "schemaVersion": "2.0.1",
  "updatedAt": "2018-09-21T21:23:06.456Z"
}